{
  "address": "0x3212B94c51b32289083CeA861718faE3AaE8a02c",
  "abi": [
    {
      "inputs": [
        {
          "internalType": "uint256[2]",
          "name": "a",
          "type": "uint256[2]"
        },
        {
          "internalType": "uint256[2][2]",
          "name": "b",
          "type": "uint256[2][2]"
        },
        {
          "internalType": "uint256[2]",
          "name": "c",
          "type": "uint256[2]"
        },
        {
          "internalType": "uint256[21]",
          "name": "input",
          "type": "uint256[21]"
        }
      ],
      "name": "verifyProof",
      "outputs": [
        {
          "internalType": "bool",
          "name": "r",
          "type": "bool"
        }
      ],
      "stateMutability": "view",
      "type": "function"
    }
  ],
  "transactionHash": "0x1f6626f3ec40ee0b16738d4d093864f5c752b979d94284965d79f0b65cf9e51b",
  "args": [],
  "numDeployments": 1,
  "solcInputHash": "f5539bdcd1311e167e1b9dbec2e1816c",
  "bytecode": "0x608060405234801561001057600080fd5b50611bae806100206000396000f3fe608060405234801561001057600080fd5b506004361061002b5760003560e01c80635debc07e14610030575b600080fd5b61019060048036036103a081101561004757600080fd5b8101908080604001906002806020026040519081016040528092919082600260200280828437600081840152601f19601f82011690508083019250505050505091929192908060800190600280602002604051908101604052809291906000905b828210156100fc578382604002016002806020026040519081016040528092919082600260200280828437600081840152601f19601f820116905080830192505050505050815260200190600101906100a8565b50505050919291929080604001906002806020026040519081016040528092919082600260200280828437600081840152601f19601f8201169050808301925050505050509192919290806102a001906015806020026040519081016040528092919082601560200280828437600081840152601f19601f82011690508083019250505050505091929192905050506101aa565b604051808215151515815260200191505060405180910390f35b60006101b4611a36565b6040518060400160405280876000600281106101cc57fe5b60200201518152602001876001600281106101e357fe5b60200201518152508160000181905250604051806040016040528060405180604001604052808860006002811061021657fe5b602002015160006002811061022757fe5b602002015181526020018860006002811061023e57fe5b602002015160016002811061024f57fe5b6020020151815250815260200160405180604001604052808860016002811061027457fe5b602002015160006002811061028557fe5b602002015181526020018860016002811061029c57fe5b60200201516001600281106102ad57fe5b602002015181525081525081602001819052506040518060400160405280856000600281106102d857fe5b60200201518152602001856001600281106102ef57fe5b602002015181525081604001819052506060601567ffffffffffffffff8111801561031957600080fd5b506040519080825280602002602001820160405280156103485781602001602082028036833780820191505090505b50905060008090505b60158110156103905784816015811061036657fe5b602002015182828151811061037757fe5b6020026020010181815250508080600101915050610351565b50600061039d82846103bd565b14156103ae576001925050506103b5565b6000925050505b949350505050565b6000807f30644e72e131a029b85045b68181585d2833e84879b9709143e1f593f000000190506103eb611a69565b6103f36105f1565b9050806080015151600186510114610473576040517f08c379a00000000000000000000000000000000000000000000000000000000081526004018080602001828103825260128152602001807f76657269666965722d6261642d696e707574000000000000000000000000000081525060200191505060405180910390fd5b61047b611ab0565b6040518060400160405280600081526020016000815250905060008090505b865181101561057a57838782815181106104b057fe5b60200260200101511061052b576040517f08c379a000000000000000000000000000000000000000000000000000000000815260040180806020018281038252601f8152602001807f76657269666965722d6774652d736e61726b2d7363616c61722d6669656c640081525060200191505060405180910390fd5b61056b826105668560800151600185018151811061054557fe5b60200260200101518a858151811061055957fe5b60200260200101516112b9565b6113b4565b9150808060010191505061049a565b5061059d81836080015160008151811061059057fe5b60200260200101516113b4565b90506105d36105af86600001516114ce565b8660200151846000015185602001518587604001518b604001518960600151611568565b6105e357600193505050506105eb565b600093505050505b92915050565b6105f9611a69565b60405180604001604052807f2d4d9aa7e302d9df41749d5507949d05dbea33fbb16c643b22f599a2be6df2e281526020017f14bedd503c37ceb061d8ec60209fe345ce89830a19230301f076caff004d19268152508160000181905250604051806040016040528060405180604001604052807f0967032fcbf776d1afc985f88877f182d38480a653f2decaa9794cbc3bf3060c81526020017f0e187847ad4c798374d0d6732bf501847dd68bc0e071241e0213bc7fc13db7ab815250815260200160405180604001604052807f304cfbd1e08a704a99f5e847d93f8c3caafddec46b7a0d379da69a4d112346a781526020017f1739c1b1a457a8c7313123d24d2f9192f896b7c63eea05a9d57f06547ad0cec88152508152508160200181905250604051806040016040528060405180604001604052807f198e9393920d483a7260bfb731fb5d25f1aa493335a9e71297e485b7aef312c281526020017f1800deef121f1e76426a00665e5c4479674322d4f75edadd46debd5cd992f6ed815250815260200160405180604001604052807f090689d0585ff075ec9e99ad690c3395bc4b313370b38ef355acdadcd122975b81526020017f12c85ea5db8c6deb4aab71808dcb408fe3d1e7690c43d37b4ce6cc0166fa7daa8152508152508160400181905250604051806040016040528060405180604001604052807f2f5d20bb4a5777e5403d6e4051098eb20eac8714c2631eed2f8854de3fc663e481526020017f0d12ebfbc0e51136010d54032f2485ae6b5a6eb196aa77c5bef7aa6ef0b0b52d815250815260200160405180604001604052807f28ad7ee912cc7130275d101152993cc04edb345095cd82eba98423dffe87396a81526020017f1995d026dcb8f75761afeac884e946cbf3ad173c7967cee0d67c6e28889de2658152508152508160600181905250601667ffffffffffffffff811180156108bd57600080fd5b506040519080825280602002602001820160405280156108f757816020015b6108e4611ab0565b8152602001906001900390816108dc5790505b50816080018190525060405180604001604052807f14b33c718f2adc6de252a17f30437c30694543daf9244ed0e45a00906a08bdab81526020017f1728ec9f87927a351b066fbbdbc4e1396abb7926e208933d95e02f2244b277fa815250816080015160008151811061096657fe5b602002602001018190525060405180604001604052807f084bbe979a2d6ee9a7cd8fb18eb908df62867f08f7904933666c78ab10fb5ff081526020017f10623b7ce336985e6f2337cbc0893d4e7696670860d042e5239ef33030fcf00781525081608001516001815181106109d757fe5b602002602001018190525060405180604001604052807f1cf8caa49f7cc4129dafd29282da3050819c878a50f4d2a38df148a149505a7481526020017f2bc14f159a505e3c10702f14628df1b72929450c8af374785ac52741c217b99b8152508160800151600281518110610a4857fe5b602002602001018190525060405180604001604052807f1a59b8b23f59625c1ec95282d9e5dee6745a32bdb72570adccda3a0f9057521d81526020017f29b42b8c3de0da182fd2fd8adc4986e74253e1dac50225b61b806ec7a3d963248152508160800151600381518110610ab957fe5b602002602001018190525060405180604001604052807f1ab50c41d1c8758f2aa7c40e51903c180751b8f65ebf4f8f0955ed4b429133b881526020017f1acb021970ce39b12e351a2d3fe9311c09b12ec887dd15017db6028898bca7398152508160800151600481518110610b2a57fe5b602002602001018190525060405180604001604052807f1655a6727e762b1067b1e0a7e4c602cabaff8635485fb5d32a9b578d9b0dcb0681526020017f0c20466fa61d475764e4b983c66aac14a8fc4a844a24d617598ed44900d20a1c8152508160800151600581518110610b9b57fe5b602002602001018190525060405180604001604052807f159626e269985563a92949f99bb2d735d2f6e1dcb1f1ba504e5e39093532290881526020017f231775a4c51b18a85f8cc2059f3988f4348934299f470fcd1d6335aad8ce6aa78152508160800151600681518110610c0c57fe5b602002602001018190525060405180604001604052807f27c876b7b47456d4a52cc17ddc6e4b0d35d2fd019842dbe9ebfc4b8d2956c4ad81526020017f0829074ad10ab91ffb257c5e8cefc24e8411a5431d581510c131a2e4c50daad38152508160800151600781518110610c7d57fe5b602002602001018190525060405180604001604052807f0359515ed086bed2ae9ba54039c5e863ad22f50bf6594208bfd935a0a18bbc3e81526020017f2d61d4500a96187b8238060872576716c1d83ec0875e7c3959ce23b59d86b8908152508160800151600881518110610cee57fe5b602002602001018190525060405180604001604052807f2131ea551bf0c465e14d753b91c784c68e06a722de49c3b2b0bdad4dac207b1981526020017f2a6568342a5ee84793cb94849a957f236d723c1a1ca287b57e9e1be000ed754e8152508160800151600981518110610d5f57fe5b602002602001018190525060405180604001604052807f28f585473f4165c4d8b7d7a41ca923825b246779576b76433381295e6a4f2b7e81526020017f1e7a27b9b43a5bfae57ec8ff81a19288bc721f21c1bd076fc25da6f1be99807d8152508160800151600a81518110610dd057fe5b602002602001018190525060405180604001604052807f1071d52ed0a479b6ec1b58e34e58fb0f5d4baa0b59fdf867de64e02af5686fa981526020017f0c0416ccc999bd0a56b14ddd56d74121eba9d80587a651689229d5895e8d51d68152508160800151600b81518110610e4157fe5b602002602001018190525060405180604001604052807f01271a9ef53baf83047bf0f6561b5768392a06e8c6c42fa4767c02babb6884cd81526020017f06e3fb0502ced4aaf3010371a487b9d91b343c5f407cd2383afd8709c680ab168152508160800151600c81518110610eb257fe5b602002602001018190525060405180604001604052807f1d1403d59031478d3ea2fb9341098632fad0239a21c94214d61ca43e49125f9381526020017f2b0712153d1b1db2b24a895b3d84e62be6c7b3103fdaf2757eec0da32fdbfa598152508160800151600d81518110610f2357fe5b602002602001018190525060405180604001604052807f08c2d525b167801213402682987403aafaacfb45a0f558557e37b29c4de5bd8d81526020017f11665ae3f2578758f83984593af2f3cc33fa66f52402422841017c0585198cbb8152508160800151600e81518110610f9457fe5b602002602001018190525060405180604001604052807f0400044feb68fdd473f146763b2e3146c7f77edf5e49503dc45a9a23e668fae081526020017f2fcedff899f69f16f109309685fe33aadc61c44c7fde6e708573126fdf6b86b68152508160800151600f8151811061100557fe5b602002602001018190525060405180604001604052807f1260c42d0d5416ab6512452931dd42553fca7a6d22e255fbf85f018128e8b2d181526020017f135b02a25a3ce915eb29446a45a6a7f753a8caf129f894e378c51ec808de6a0b815250816080015160108151811061107657fe5b602002602001018190525060405180604001604052807f04a7b3a0ebc3ba6729501b8cb1cf5f8e7779a1cff26986f92069570f1725cea081526020017f0b9dc42a9730ee4500482a53f0c7bf5675342ee122a3e8bff0e1c4a1412ddf1581525081608001516011815181106110e757fe5b602002602001018190525060405180604001604052807f1c60890b89f159f5568bce24a619796f57c5dba8fcf8c5b173feaa8e34cccdb581526020017f13687eb6190733f2e1849e771ad4444e5a8ddf8af1f2ae1643618ea2bee915ac815250816080015160128151811061115857fe5b602002602001018190525060405180604001604052807f105a0703e60f514e5ab8f8c046737c006fb66377c1a6714f87c21f033e12570681526020017f278d8dde98e8ef5af5b76e3d6cf93d6de02ad1d96fce249a388ae112b43c0f3781525081608001516013815181106111c957fe5b602002602001018190525060405180604001604052807f252fcc9ac97ce536231a0aa72864f966f718ff0ea6df45d555b48582938acfcf81526020017f2f59d5e597b59b9ccd469d3e32a816c9cd3f092d32c2f785a1088c8bc63a3fac815250816080015160148151811061123a57fe5b602002602001018190525060405180604001604052807f2eb8c1ba38928ac005e79e6316e47778f2d640100c78e1edec1bcad773421dce81526020017f29c60f853bd2f2c2db4e4d3ba4df39ce0cb4ec9f607799cd36f63bee3893455a81525081608001516015815181106112ab57fe5b602002602001018190525090565b6112c1611ab0565b6112c9611aca565b8360000151816000600381106112db57fe5b6020020181815250508360200151816001600381106112f657fe5b602002018181525050828160026003811061130d57fe5b602002018181525050600060608360808460076107d05a03fa9050806000811461133657611338565bfe5b50806113ac576040517f08c379a00000000000000000000000000000000000000000000000000000000081526004018080602001828103825260128152602001807f70616972696e672d6d756c2d6661696c6564000000000000000000000000000081525060200191505060405180910390fd5b505092915050565b6113bc611ab0565b6113c4611aec565b8360000151816000600481106113d657fe5b6020020181815250508360200151816001600481106113f157fe5b60200201818152505082600001518160026004811061140c57fe5b60200201818152505082602001518160036004811061142757fe5b602002018181525050600060608360c08460066107d05a03fa9050806000811461145057611452565bfe5b50806114c6576040517f08c379a00000000000000000000000000000000000000000000000000000000081526004018080602001828103825260128152602001807f70616972696e672d6164642d6661696c6564000000000000000000000000000081525060200191505060405180910390fd5b505092915050565b6114d6611ab0565b60007f30644e72e131a029b85045b68181585d97816a916871ca8d3c208c16d87cfd47905060008360000151148015611513575060008360200151145b15611537576040518060400160405280600081526020016000815250915050611563565b6040518060400160405280846000015181526020018285602001518161155957fe5b0683038152509150505b919050565b60006060600467ffffffffffffffff8111801561158457600080fd5b506040519080825280602002602001820160405280156115be57816020015b6115ab611ab0565b8152602001906001900390816115a35790505b5090506060600467ffffffffffffffff811180156115db57600080fd5b5060405190808252806020026020018201604052801561161557816020015b611602611b0e565b8152602001906001900390816115fa5790505b5090508a8260008151811061162657fe5b6020026020010181905250888260018151811061163f57fe5b6020026020010181905250868260028151811061165857fe5b6020026020010181905250848260038151811061167157fe5b6020026020010181905250898160008151811061168a57fe5b602002602001018190525087816001815181106116a357fe5b602002602001018190525085816002815181106116bc57fe5b602002602001018190525083816003815181106116d557fe5b60200260200101819052506116ea82826116fa565b9250505098975050505050505050565b60008151835114611773576040517f08c379a00000000000000000000000000000000000000000000000000000000081526004018080602001828103825260168152602001807f70616972696e672d6c656e677468732d6661696c65640000000000000000000081525060200191505060405180910390fd5b600083519050600060068202905060608167ffffffffffffffff8111801561179a57600080fd5b506040519080825280602002602001820160405280156117c95781602001602082028036833780820191505090505b50905060008090505b8381101561196f578681815181106117e657fe5b60200260200101516000015182600060068402018151811061180457fe5b60200260200101818152505086818151811061181c57fe5b60200260200101516020015182600160068402018151811061183a57fe5b60200260200101818152505085818151811061185257fe5b60200260200101516000015160006002811061186a57fe5b602002015182600260068402018151811061188157fe5b60200260200101818152505085818151811061189957fe5b6020026020010151600001516001600281106118b157fe5b60200201518260036006840201815181106118c857fe5b6020026020010181815250508581815181106118e057fe5b6020026020010151602001516000600281106118f857fe5b602002015182600460068402018151811061190f57fe5b60200260200101818152505085818151811061192757fe5b60200260200101516020015160016002811061193f57fe5b602002015182600560068402018151811061195657fe5b60200260200101818152505080806001019150506117d2565b50611978611b34565b6000602082602086026020860160086107d05a03fa9050806000811461199d5761199f565bfe5b5080611a13576040517f08c379a00000000000000000000000000000000000000000000000000000000081526004018080602001828103825260158152602001807f70616972696e672d6f70636f64652d6661696c6564000000000000000000000081525060200191505060405180910390fd5b600082600060018110611a2257fe5b602002015114159550505050505092915050565b6040518060600160405280611a49611ab0565b8152602001611a56611b0e565b8152602001611a63611ab0565b81525090565b6040518060a00160405280611a7c611ab0565b8152602001611a89611b0e565b8152602001611a96611b0e565b8152602001611aa3611b0e565b8152602001606081525090565b604051806040016040528060008152602001600081525090565b6040518060600160405280600390602082028036833780820191505090505090565b6040518060800160405280600490602082028036833780820191505090505090565b6040518060400160405280611b21611b56565b8152602001611b2e611b56565b81525090565b6040518060200160405280600190602082028036833780820191505090505090565b604051806040016040528060029060208202803683378082019150509050509056fea2646970667358221220c1360fbc658c3619369329616d9fcdd9a1d2d5328889d6493e209784911c601364736f6c634300060b0033",
  "devdoc": {
    "kind": "dev",
    "methods": {
      "verifyProof(uint256[2],uint256[2][2],uint256[2],uint256[21])": {
        "returns": {
          "r": " bool true if proof is valid"
        }
      }
    },
    "version": 1
  },
  "userdoc": {
    "kind": "user",
    "methods": {},
    "version": 1
  },
  "storageLayout": {
    "storage": [],
    "types": null
  }
}