{
  "address": "0xA76ac9a80f64b7F90D96F08A06DcCE1dF86797A8",
  "abi": [
    {
      "anonymous": false,
      "inputs": [
        {
          "indexed": true,
          "internalType": "address",
          "name": "owner",
          "type": "address"
        },
        {
          "indexed": false,
          "internalType": "bytes",
          "name": "shieldedAddress",
          "type": "bytes"
        }
      ],
      "name": "ShieldedAddress",
      "type": "event"
    },
    {
      "inputs": [
        {
          "internalType": "bytes",
          "name": "shieldedAddress",
          "type": "bytes"
        }
      ],
      "name": "register",
      "outputs": [],
      "stateMutability": "nonpayable",
      "type": "function"
    }
  ],
  "transactionHash": "0x1060bf3870ce5ca437529529d41e323df93f80c21040aba10683235de84dd185",
  "args": [],
  "numDeployments": 1,
  "solcInputHash": "1675800c149acbc1023f3b4d4d573a7d",
  "bytecode": "0x608060405234801561001057600080fd5b50610214806100206000396000f3fe608060405234801561001057600080fd5b506004361061002b5760003560e01c806382fbdc9c14610030575b600080fd5b61004a6004803603810190610045919061010f565b61004c565b005b3373ffffffffffffffffffffffffffffffffffffffff167fd6752b4b009bd1e4993c77cfb562c87c49a6e176996cd4fbb090061078e2208983836040516100949291906101ba565b60405180910390a25050565b600080fd5b600080fd5b600080fd5b600080fd5b600080fd5b60008083601f8401126100cf576100ce6100aa565b5b8235905067ffffffffffffffff8111156100ec576100eb6100af565b5b602083019150836001820283011115610108576101076100b4565b5b9250929050565b60008060208385031215610126576101256100a0565b5b600083013567ffffffffffffffff811115610144576101436100a5565b5b610150858286016100b9565b92509250509250929050565b600082825260208201905092915050565b82818337600083830152505050565b6000601f19601f8301169050919050565b6000610199838561015c565b93506101a683858461016d565b6101af8361017c565b840190509392505050565b600060208201905081810360008301526101d581848661018d565b9050939250505056fea26469706673582212205373ba857e89e0bef2b98d048f77a751bad784686cd014f0882976a5acad86f964736f6c63430008110033",
  "devdoc": {
    "kind": "dev",
    "methods": {},
    "version": 1
  },
  "userdoc": {
    "kind": "user",
    "methods": {},
    "version": 1
  },
  "storageLayout": {
    "storage": [],
    "types": null
  }
}