{
  "address": "0xDbe6d4B26B6112a99831D4a785c6D4bDF314c6D7",
  "abi": [
    {
      "inputs": [
        {
          "internalType": "address",
          "name": "wToken_",
          "type": "address"
        }
      ],
      "stateMutability": "nonpayable",
      "type": "constructor"
    },
    {
      "inputs": [
        {
          "internalType": "uint256",
          "name": "sent",
          "type": "uint256"
        },
        {
          "internalType": "uint256",
          "name": "required",
          "type": "uint256"
        }
      ],
      "name": "NotEnoughTokensSent",
      "type": "error"
    },
    {
      "inputs": [
        {
          "internalType": "address",
          "name": "recipient",
          "type": "address"
        },
        {
          "internalType": "address",
          "name": "gateway",
          "type": "address"
        }
      ],
      "name": "RecipientNotGateway",
      "type": "error"
    },
    {
      "inputs": [
        {
          "internalType": "address",
          "name": "pool",
          "type": "address"
        },
        {
          "components": [
            {
              "components": [
                {
                  "internalType": "uint256[2]",
                  "name": "a",
                  "type": "uint256[2]"
                },
                {
                  "internalType": "uint256[2][2]",
                  "name": "b",
                  "type": "uint256[2][2]"
                },
                {
                  "internalType": "uint256[2]",
                  "name": "c",
                  "type": "uint256[2]"
                }
              ],
              "internalType": "struct Proof",
              "name": "proof",
              "type": "tuple"
            },
            {
              "internalType": "bytes32",
              "name": "root",
              "type": "bytes32"
            },
            {
              "internalType": "bytes32[]",
              "name": "inputNullifiers",
              "type": "bytes32[]"
            },
            {
              "internalType": "bytes32[2]",
              "name": "outputCommitments",
              "type": "bytes32[2]"
            },
            {
              "internalType": "uint256",
              "name": "publicScaledAmount",
              "type": "uint256"
            },
            {
              "internalType": "bytes32",
              "name": "extDataHash",
              "type": "bytes32"
            }
          ],
          "internalType": "struct ProofArgs",
          "name": "args",
          "type": "tuple"
        },
        {
          "components": [
            {
              "internalType": "address",
              "name": "recipient",
              "type": "address"
            },
            {
              "internalType": "uint256",
              "name": "scaledAmount",
              "type": "uint256"
            },
            {
              "internalType": "address",
              "name": "relayer",
              "type": "address"
            },
            {
              "internalType": "uint256",
              "name": "scaledFee",
              "type": "uint256"
            },
            {
              "internalType": "bytes",
              "name": "encryptedOutput1",
              "type": "bytes"
            },
            {
              "internalType": "bytes",
              "name": "encryptedOutput2",
              "type": "bytes"
            }
          ],
          "internalType": "struct ExtData",
          "name": "extData",
          "type": "tuple"
        }
      ],
      "name": "supply",
      "outputs": [],
      "stateMutability": "payable",
      "type": "function"
    },
    {
      "inputs": [],
      "name": "wToken",
      "outputs": [
        {
          "internalType": "contract IWToken",
          "name": "",
          "type": "address"
        }
      ],
      "stateMutability": "view",
      "type": "function"
    },
    {
      "inputs": [
        {
          "internalType": "address",
          "name": "pool",
          "type": "address"
        },
        {
          "internalType": "address",
          "name": "unwrappedTokenReceiver",
          "type": "address"
        },
        {
          "components": [
            {
              "components": [
                {
                  "internalType": "uint256[2]",
                  "name": "a",
                  "type": "uint256[2]"
                },
                {
                  "internalType": "uint256[2][2]",
                  "name": "b",
                  "type": "uint256[2][2]"
                },
                {
                  "internalType": "uint256[2]",
                  "name": "c",
                  "type": "uint256[2]"
                }
              ],
              "internalType": "struct Proof",
              "name": "proof",
              "type": "tuple"
            },
            {
              "internalType": "bytes32",
              "name": "root",
              "type": "bytes32"
            },
            {
              "internalType": "bytes32[]",
              "name": "inputNullifiers",
              "type": "bytes32[]"
            },
            {
              "internalType": "bytes32[2]",
              "name": "outputCommitments",
              "type": "bytes32[2]"
            },
            {
              "internalType": "uint256",
              "name": "publicScaledAmount",
              "type": "uint256"
            },
            {
              "internalType": "bytes32",
              "name": "extDataHash",
              "type": "bytes32"
            }
          ],
          "internalType": "struct ProofArgs",
          "name": "args",
          "type": "tuple"
        },
        {
          "components": [
            {
              "internalType": "address",
              "name": "recipient",
              "type": "address"
            },
            {
              "internalType": "uint256",
              "name": "scaledAmount",
              "type": "uint256"
            },
            {
              "internalType": "address",
              "name": "relayer",
              "type": "address"
            },
            {
              "internalType": "uint256",
              "name": "scaledFee",
              "type": "uint256"
            },
            {
              "internalType": "bytes",
              "name": "encryptedOutput1",
              "type": "bytes"
            },
            {
              "internalType": "bytes",
              "name": "encryptedOutput2",
              "type": "bytes"
            }
          ],
          "internalType": "struct ExtData",
          "name": "extData",
          "type": "tuple"
        }
      ],
      "name": "withdraw",
      "outputs": [],
      "stateMutability": "nonpayable",
      "type": "function"
    },
    {
      "stateMutability": "payable",
      "type": "receive"
    }
  ],
  "transactionHash": "0x6948fef43df2f544294447bf08d58b296f167678ffe63619f4810446a6094e5c",
  "args": [
    "0xCCB14936C2E000ED8393A571D15A2672537838Ad"
  ],
  "numDeployments": 1,
  "solcInputHash": "c5ef8ed0a69ae399137dd2e38e5bcdd2",
  "bytecode": "0x60a06040523480156200001157600080fd5b50604051620016e6380380620016e68339818101604052810190620000379190620000dc565b8073ffffffffffffffffffffffffffffffffffffffff1660808173ffffffffffffffffffffffffffffffffffffffff1681525050506200010e565b600080fd5b600073ffffffffffffffffffffffffffffffffffffffff82169050919050565b6000620000a48262000077565b9050919050565b620000b68162000097565b8114620000c257600080fd5b50565b600081519050620000d681620000ab565b92915050565b600060208284031215620000f557620000f462000072565b5b60006200010584828501620000c5565b91505092915050565b6080516115996200014d600039600081816101ce0152818161020a0152818161028d015281816103290152818161042501526104a601526115996000f3fe6080604052600436106100385760003560e01c8063078c4830146100445780630babd8641461006d578063207db819146100985761003f565b3661003f57005b600080fd5b34801561005057600080fd5b5061006b600480360381019061006691906107ee565b6100b4565b005b34801561007957600080fd5b50610082610327565b60405161008f91906108ec565b60405180910390f35b6100b260048036038101906100ad9190610907565b61034b565b005b3073ffffffffffffffffffffffffffffffffffffffff168160000160208101906100de9190610992565b73ffffffffffffffffffffffffffffffffffffffff161461014a5780600001602081019061010c9190610992565b306040517fb52905ef0000000000000000000000000000000000000000000000000000000081526004016101419291906109ce565b60405180910390fd5b60008473ffffffffffffffffffffffffffffffffffffffff16636c3bc78584846040518363ffffffff1660e01b8152600401610187929190610f58565b6020604051808303816000875af11580156101a6573d6000803e3d6000fd5b505050506040513d601f19601f820116820180604052508101906101ca9190610fa4565b90507f000000000000000000000000000000000000000000000000000000000000000073ffffffffffffffffffffffffffffffffffffffff1663095ea7b37f0000000000000000000000000000000000000000000000000000000000000000836040518363ffffffff1660e01b8152600401610247929190610fe0565b6020604051808303816000875af1158015610266573d6000803e3d6000fd5b505050506040513d601f19601f8201168201806040525081019061028a9190611041565b507f000000000000000000000000000000000000000000000000000000000000000073ffffffffffffffffffffffffffffffffffffffff16632e1a7d4d826040518263ffffffff1660e01b81526004016102e4919061106e565b600060405180830381600087803b1580156102fe57600080fd5b505af1158015610312573d6000803e3d6000fd5b5050505061032084826105ed565b5050505050565b7f000000000000000000000000000000000000000000000000000000000000000081565b60008373ffffffffffffffffffffffffffffffffffffffff1663c5fd0ab46040518163ffffffff1660e01b815260040161022060405180830381865afa158015610399573d6000803e3d6000fd5b505050506040513d601f19601f820116820180604052508101906103bd919061137d565b9250505060006103da8284602001356106ed90919063ffffffff16565b9050803410156104235734816040517f79d146bc00000000000000000000000000000000000000000000000000000000815260040161041a9291906113d2565b60405180910390fd5b7f000000000000000000000000000000000000000000000000000000000000000073ffffffffffffffffffffffffffffffffffffffff1663d0e30db0826040518263ffffffff1660e01b81526004016000604051808303818588803b15801561048b57600080fd5b505af115801561049f573d6000803e3d6000fd5b50505050507f000000000000000000000000000000000000000000000000000000000000000073ffffffffffffffffffffffffffffffffffffffff1663095ea7b386836040518363ffffffff1660e01b81526004016104ff929190610fe0565b6020604051808303816000875af115801561051e573d6000803e3d6000fd5b505050506040513d601f19601f820116820180604052508101906105429190611041565b508473ffffffffffffffffffffffffffffffffffffffff1663528454c285856040518363ffffffff1660e01b815260040161057e929190610f58565b6020604051808303816000875af115801561059d573d6000803e3d6000fd5b505050506040513d601f19601f820116820180604052508101906105c19190610fa4565b50600081346105d0919061142a565b9050600081146105e5576105e433826105ed565b5b505050505050565b60008273ffffffffffffffffffffffffffffffffffffffff1682600067ffffffffffffffff811115610622576106216110a3565b5b6040519080825280601f01601f1916602001820160405280156106545781602001600182028036833780820191505090505b5060405161066291906114cf565b60006040518083038185875af1925050503d806000811461069f576040519150601f19603f3d011682016040523d82523d6000602084013e6106a4565b606091505b50509050806106e8576040517f08c379a00000000000000000000000000000000000000000000000000000000081526004016106df90611543565b60405180910390fd5b505050565b6000816b019d971e4fe8401e74000000600019030483111582151761071157600080fd5b6b033b2e3c9fd0803ce80000006b019d971e4fe8401e740000008385020104905092915050565b6000604051905090565b600080fd5b600080fd5b600073ffffffffffffffffffffffffffffffffffffffff82169050919050565b60006107778261074c565b9050919050565b6107878161076c565b811461079257600080fd5b50565b6000813590506107a48161077e565b92915050565b600080fd5b60006101c082840312156107c6576107c56107aa565b5b81905092915050565b600060c082840312156107e5576107e46107aa565b5b81905092915050565b6000806000806080858703121561080857610807610742565b5b600061081687828801610795565b945050602061082787828801610795565b935050604085013567ffffffffffffffff81111561084857610847610747565b5b610854878288016107af565b925050606085013567ffffffffffffffff81111561087557610874610747565b5b610881878288016107cf565b91505092959194509250565b6000819050919050565b60006108b26108ad6108a88461074c565b61088d565b61074c565b9050919050565b60006108c482610897565b9050919050565b60006108d6826108b9565b9050919050565b6108e6816108cb565b82525050565b600060208201905061090160008301846108dd565b92915050565b6000806000606084860312156109205761091f610742565b5b600061092e86828701610795565b935050602084013567ffffffffffffffff81111561094f5761094e610747565b5b61095b868287016107af565b925050604084013567ffffffffffffffff81111561097c5761097b610747565b5b610988868287016107cf565b9150509250925092565b6000602082840312156109a8576109a7610742565b5b60006109b684828501610795565b91505092915050565b6109c88161076c565b82525050565b60006040820190506109e360008301856109bf565b6109f060208301846109bf565b9392505050565b600082905092915050565b600082905092915050565b82818337505050565b610a2260408383610a0d565b5050565b600082905092915050565b600060029050919050565b600081905092915050565b6000819050919050565b6000610a5d8383610a16565b60408301905092915050565b6000604082019050919050565b610a7f81610a31565b610a898184610a3c565b9250610a9482610a47565b8060005b83811015610acd57610aaa8284610a02565b610ab48782610a51565b9650610abf83610a69565b925050600181019050610a98565b505050505050565b6101008201610ae76000830183610a02565b610af46000850182610a16565b50610b026040830183610a26565b610b0f6040850182610a76565b50610b1d60c0830183610a02565b610b2a60c0850182610a16565b50505050565b6000819050919050565b610b4381610b30565b8114610b4e57600080fd5b50565b600081359050610b6081610b3a565b92915050565b6000610b756020840184610b51565b905092915050565b610b8681610b30565b82525050565b600080fd5b600080fd5b600080fd5b60008083356001602003843603038112610bb857610bb7610b96565b5b83810192508235915060208301925067ffffffffffffffff821115610be057610bdf610b8c565b5b602082023603831315610bf657610bf5610b91565b5b509250929050565b600082825260208201905092915050565b600080fd5b6000610c208385610bfe565b93507f07ffffffffffffffffffffffffffffffffffffffffffffffffffffffffffffff831115610c5357610c52610c0f565b5b602083029250610c64838584610a0d565b82840190509392505050565b600082905092915050565b610c8760408383610a0d565b5050565b6000819050919050565b610c9e81610c8b565b8114610ca957600080fd5b50565b600081359050610cbb81610c95565b92915050565b6000610cd06020840184610cac565b905092915050565b610ce181610c8b565b82525050565b60006101c08301610cfb60008401846109f7565b610d086000860182610ad5565b50610d17610100840184610b66565b610d25610100860182610b7d565b50610d34610120840184610b9b565b858303610120870152610d48838284610c14565b92505050610d5a610140840184610c70565b610d68610140860182610c7b565b50610d77610180840184610cc1565b610d85610180860182610cd8565b50610d946101a0840184610b66565b610da26101a0860182610b7d565b508091505092915050565b6000610dbc6020840184610795565b905092915050565b610dcd8161076c565b82525050565b60008083356001602003843603038112610df057610def610b96565b5b83810192508235915060208301925067ffffffffffffffff821115610e1857610e17610b8c565b5b600182023603831315610e2e57610e2d610b91565b5b509250929050565b600082825260208201905092915050565b82818337600083830152505050565b6000601f19601f8301169050919050565b6000610e738385610e36565b9350610e80838584610e47565b610e8983610e56565b840190509392505050565b600060c08301610ea76000840184610dad565b610eb46000860182610dc4565b50610ec26020840184610cc1565b610ecf6020860182610cd8565b50610edd6040840184610dad565b610eea6040860182610dc4565b50610ef86060840184610cc1565b610f056060860182610cd8565b50610f136080840184610dd3565b8583036080870152610f26838284610e67565b92505050610f3760a0840184610dd3565b85830360a0870152610f4a838284610e67565b925050508091505092915050565b60006040820190508181036000830152610f728185610ce7565b90508181036020830152610f868184610e94565b90509392505050565b600081519050610f9e81610c95565b92915050565b600060208284031215610fba57610fb9610742565b5b6000610fc884828501610f8f565b91505092915050565b610fda81610c8b565b82525050565b6000604082019050610ff560008301856109bf565b6110026020830184610fd1565b9392505050565b60008115159050919050565b61101e81611009565b811461102957600080fd5b50565b60008151905061103b81611015565b92915050565b60006020828403121561105757611056610742565b5b60006110658482850161102c565b91505092915050565b60006020820190506110836000830184610fd1565b92915050565b6000815190506110988161077e565b92915050565b600080fd5b7f4e487b7100000000000000000000000000000000000000000000000000000000600052604160045260246000fd5b6110db82610e56565b810181811067ffffffffffffffff821117156110fa576110f96110a3565b5b80604052505050565b600061110d610738565b905061111982826110d2565b919050565b6000602082840312156111345761113361109e565b5b61113e6020611103565b9050600061114e84828501610f8f565b60008301525092915050565b60006fffffffffffffffffffffffffffffffff82169050919050565b61117f8161115a565b811461118a57600080fd5b50565b60008151905061119c81611176565b92915050565b600064ffffffffff82169050919050565b6111bc816111a2565b81146111c757600080fd5b50565b6000815190506111d9816111b3565b92915050565b600061ffff82169050919050565b6111f6816111df565b811461120157600080fd5b50565b600081519050611213816111ed565b92915050565b60006101e082840312156112305761122f61109e565b5b61123b6101e0611103565b9050600061124b8482850161111e565b600083015250602061125f8482850161118d565b60208301525060406112738482850161118d565b60408301525060606112878482850161118d565b606083015250608061129b8482850161118d565b60808301525060a06112af8482850161118d565b60a08301525060c06112c3848285016111ca565b60c08301525060e06112d784828501611204565b60e0830152506101006112ec84828501611089565b6101008301525061012061130284828501611089565b6101208301525061014061131884828501611089565b6101408301525061016061132e84828501611089565b610160830152506101806113448482850161118d565b610180830152506101a061135a8482850161118d565b6101a0830152506101c06113708482850161118d565b6101c08301525092915050565b6000806000610220848603121561139757611396610742565b5b60006113a586828701611089565b93505060206113b686828701611219565b9250506102006113c886828701610f8f565b9150509250925092565b60006040820190506113e76000830185610fd1565b6113f46020830184610fd1565b9392505050565b7f4e487b7100000000000000000000000000000000000000000000000000000000600052601160045260246000fd5b600061143582610c8b565b915061144083610c8b565b9250828203905081811115611458576114576113fb565b5b92915050565b600081519050919050565b600081905092915050565b60005b83811015611492578082015181840152602081019050611477565b60008484015250505050565b60006114a98261145e565b6114b38185611469565b93506114c3818560208601611474565b80840191505092915050565b60006114db828461149e565b915081905092915050565b600082825260208201905092915050565b7f4554485f5452414e534645525f4641494c454400000000000000000000000000600082015250565b600061152d6013836114e6565b9150611538826114f7565b602082019050919050565b6000602082019050818103600083015261155c81611520565b905091905056fea2646970667358221220c269cc4b7940df180ab0217d7d913e62b6ae0279fdaf95f3a7225825ac9a817364736f6c63430008110033",
  "devdoc": {
    "kind": "dev",
    "methods": {},
    "version": 1
  },
  "userdoc": {
    "kind": "user",
    "methods": {},
    "version": 1
  },
  "storageLayout": {
    "storage": [],
    "types": null
  }
}