{
  "address": "0x40B6BD12bAc3834c43C1Ca70196A1Ee295317ae6",
  "abi": [
    {
      "inputs": [
        {
          "internalType": "uint256[2]",
          "name": "a",
          "type": "uint256[2]"
        },
        {
          "internalType": "uint256[2][2]",
          "name": "b",
          "type": "uint256[2][2]"
        },
        {
          "internalType": "uint256[2]",
          "name": "c",
          "type": "uint256[2]"
        },
        {
          "internalType": "uint256[7]",
          "name": "input",
          "type": "uint256[7]"
        }
      ],
      "name": "verifyProof",
      "outputs": [
        {
          "internalType": "bool",
          "name": "r",
          "type": "bool"
        }
      ],
      "stateMutability": "view",
      "type": "function"
    }
  ],
  "transactionHash": "0x50ecb8b288c54d5c499333b2fd6b2d54cd5f05a3179203a9168614a04bceab9b",
  "args": [],
  "numDeployments": 1,
  "solcInputHash": "f5539bdcd1311e167e1b9dbec2e1816c",
  "bytecode": "0x608060405234801561001057600080fd5b5061157f806100206000396000f3fe608060405234801561001057600080fd5b506004361061002b5760003560e01c8063c894e75714610030575b600080fd5b61018f60048036036101e081101561004757600080fd5b8101908080604001906002806020026040519081016040528092919082600260200280828437600081840152601f19601f82011690508083019250505050505091929192908060800190600280602002604051908101604052809291906000905b828210156100fc578382604002016002806020026040519081016040528092919082600260200280828437600081840152601f19601f820116905080830192505050505050815260200190600101906100a8565b50505050919291929080604001906002806020026040519081016040528092919082600260200280828437600081840152601f19601f82011690508083019250505050505091929192908060e001906007806020026040519081016040528092919082600760200280828437600081840152601f19601f82011690508083019250505050505091929192905050506101a9565b604051808215151515815260200191505060405180910390f35b60006101b3611407565b6040518060400160405280876000600281106101cb57fe5b60200201518152602001876001600281106101e257fe5b60200201518152508160000181905250604051806040016040528060405180604001604052808860006002811061021557fe5b602002015160006002811061022657fe5b602002015181526020018860006002811061023d57fe5b602002015160016002811061024e57fe5b6020020151815250815260200160405180604001604052808860016002811061027357fe5b602002015160006002811061028457fe5b602002015181526020018860016002811061029b57fe5b60200201516001600281106102ac57fe5b602002015181525081525081602001819052506040518060400160405280856000600281106102d757fe5b60200201518152602001856001600281106102ee57fe5b602002015181525081604001819052506060600767ffffffffffffffff8111801561031857600080fd5b506040519080825280602002602001820160405280156103475781602001602082028036833780820191505090505b50905060008090505b600781101561038f5784816007811061036557fe5b602002015182828151811061037657fe5b6020026020010181815250508080600101915050610350565b50600061039c82846103bc565b14156103ad576001925050506103b4565b6000925050505b949350505050565b6000807f30644e72e131a029b85045b68181585d2833e84879b9709143e1f593f000000190506103ea61143a565b6103f26105f0565b9050806080015151600186510114610472576040517f08c379a00000000000000000000000000000000000000000000000000000000081526004018080602001828103825260128152602001807f76657269666965722d6261642d696e707574000000000000000000000000000081525060200191505060405180910390fd5b61047a611481565b6040518060400160405280600081526020016000815250905060008090505b865181101561057957838782815181106104af57fe5b60200260200101511061052a576040517f08c379a000000000000000000000000000000000000000000000000000000000815260040180806020018281038252601f8152602001807f76657269666965722d6774652d736e61726b2d7363616c61722d6669656c640081525060200191505060405180910390fd5b61056a826105658560800151600185018151811061054457fe5b60200260200101518a858151811061055857fe5b6020026020010151610c8a565b610d85565b91508080600101915050610499565b5061059c81836080015160008151811061058f57fe5b6020026020010151610d85565b90506105d26105ae8660000151610e9f565b8660200151846000015185602001518587604001518b604001518960600151610f39565b6105e257600193505050506105ea565b600093505050505b92915050565b6105f861143a565b60405180604001604052807f2d4d9aa7e302d9df41749d5507949d05dbea33fbb16c643b22f599a2be6df2e281526020017f14bedd503c37ceb061d8ec60209fe345ce89830a19230301f076caff004d19268152508160000181905250604051806040016040528060405180604001604052807f0967032fcbf776d1afc985f88877f182d38480a653f2decaa9794cbc3bf3060c81526020017f0e187847ad4c798374d0d6732bf501847dd68bc0e071241e0213bc7fc13db7ab815250815260200160405180604001604052807f304cfbd1e08a704a99f5e847d93f8c3caafddec46b7a0d379da69a4d112346a781526020017f1739c1b1a457a8c7313123d24d2f9192f896b7c63eea05a9d57f06547ad0cec88152508152508160200181905250604051806040016040528060405180604001604052807f198e9393920d483a7260bfb731fb5d25f1aa493335a9e71297e485b7aef312c281526020017f1800deef121f1e76426a00665e5c4479674322d4f75edadd46debd5cd992f6ed815250815260200160405180604001604052807f090689d0585ff075ec9e99ad690c3395bc4b313370b38ef355acdadcd122975b81526020017f12c85ea5db8c6deb4aab71808dcb408fe3d1e7690c43d37b4ce6cc0166fa7daa8152508152508160400181905250604051806040016040528060405180604001604052807f0ad90a18840d684871366905295063a0132149a5043b92d00fd4a86bc31153c081526020017f2160d331bba409be2a86534c7069749dca3c550a52e7860e3331793e5f365ad2815250815260200160405180604001604052807f16670581d31c8d91803b36fae1f0ae2ba433cf9cc5208aa98f229081d259cbdb81526020017f0bbf46ebad7f970f986098856354bd0a41f54c94753c0b482d8265d942ef84c08152508152508160600181905250600867ffffffffffffffff811180156108bc57600080fd5b506040519080825280602002602001820160405280156108f657816020015b6108e3611481565b8152602001906001900390816108db5790505b50816080018190525060405180604001604052807f20602ce867d5902ed8da2c6fede7d30d7d1b4f53071696a7d03527390db4ae4a81526020017f1f83e77fe14d90ffb3dd9865341886d857af6421a99479c7cd131ef0fd37ce31815250816080015160008151811061096557fe5b602002602001018190525060405180604001604052807f1ee179f0d0a2725aac2cc953dd532a3565b153c37fd9de58d8b03669e82aeba681526020017f2f84e765d0299d9afb7da5ede70f4b450ed8319bb2eeb617cb467fced9a674cb81525081608001516001815181106109d657fe5b602002602001018190525060405180604001604052807f10d1a9ca3ad4d5d34d358d2861617af8f630984200b1766087b097f8994b7ff881526020017f282473bb8a0f0161fbe79cd5c6ba79d59b22c6044bfcff2dd31f508a81f07a058152508160800151600281518110610a4757fe5b602002602001018190525060405180604001604052807f2137ecbb8928e614542568c11938e2e6a637d31bbea44665f6aede19ab2bf2f881526020017f0ce2459da2e8afd7b8bbddaad0decace1a301eecdb9d0d9e9a209296f6974e368152508160800151600381518110610ab857fe5b602002602001018190525060405180604001604052807f2c48554ff23d97f0d5ba3fea815fbf401fb6e6bc459eccdf556cd8b79615bdcc81526020017f25193e056f0bd4fbe7ca5c5d053444fd8aa1e64f4f4f845c5a7d2299052402ac8152508160800151600481518110610b2957fe5b602002602001018190525060405180604001604052807f18aa3629ea9f4bdc25e8c5a02effe672302f48c27cd95e3031f05618065b2dad81526020017f1a82165e248de6dce750382b1e3b7a5ac4657c2504dfc69b8c8dd57790ed09038152508160800151600581518110610b9a57fe5b602002602001018190525060405180604001604052807f244e621c728fafb6ce649519cb529c9b13a6a7fa70a0f9baae623f77792630a581526020017f2981da2c6d746c9f8e1d3edf7fd4c5a407e56f2a73b448f329f7b6e83d4c55f68152508160800151600681518110610c0b57fe5b602002602001018190525060405180604001604052807f0f260819b770b2e01637b0ec289a37e6fff852dd13f1292d9260d058efb1558c81526020017f2b2356d44c2dc618c880c23aae67ad5954b873a3dead4d3958dd7daf63181d8b8152508160800151600781518110610c7c57fe5b602002602001018190525090565b610c92611481565b610c9a61149b565b836000015181600060038110610cac57fe5b602002018181525050836020015181600160038110610cc757fe5b6020020181815250508281600260038110610cde57fe5b602002018181525050600060608360808460076107d05a03fa90508060008114610d0757610d09565bfe5b5080610d7d576040517f08c379a00000000000000000000000000000000000000000000000000000000081526004018080602001828103825260128152602001807f70616972696e672d6d756c2d6661696c6564000000000000000000000000000081525060200191505060405180910390fd5b505092915050565b610d8d611481565b610d956114bd565b836000015181600060048110610da757fe5b602002018181525050836020015181600160048110610dc257fe5b602002018181525050826000015181600260048110610ddd57fe5b602002018181525050826020015181600360048110610df857fe5b602002018181525050600060608360c08460066107d05a03fa90508060008114610e2157610e23565bfe5b5080610e97576040517f08c379a00000000000000000000000000000000000000000000000000000000081526004018080602001828103825260128152602001807f70616972696e672d6164642d6661696c6564000000000000000000000000000081525060200191505060405180910390fd5b505092915050565b610ea7611481565b60007f30644e72e131a029b85045b68181585d97816a916871ca8d3c208c16d87cfd47905060008360000151148015610ee4575060008360200151145b15610f08576040518060400160405280600081526020016000815250915050610f34565b60405180604001604052808460000151815260200182856020015181610f2a57fe5b0683038152509150505b919050565b60006060600467ffffffffffffffff81118015610f5557600080fd5b50604051908082528060200260200182016040528015610f8f57816020015b610f7c611481565b815260200190600190039081610f745790505b5090506060600467ffffffffffffffff81118015610fac57600080fd5b50604051908082528060200260200182016040528015610fe657816020015b610fd36114df565b815260200190600190039081610fcb5790505b5090508a82600081518110610ff757fe5b6020026020010181905250888260018151811061101057fe5b6020026020010181905250868260028151811061102957fe5b6020026020010181905250848260038151811061104257fe5b6020026020010181905250898160008151811061105b57fe5b6020026020010181905250878160018151811061107457fe5b6020026020010181905250858160028151811061108d57fe5b602002602001018190525083816003815181106110a657fe5b60200260200101819052506110bb82826110cb565b9250505098975050505050505050565b60008151835114611144576040517f08c379a00000000000000000000000000000000000000000000000000000000081526004018080602001828103825260168152602001807f70616972696e672d6c656e677468732d6661696c65640000000000000000000081525060200191505060405180910390fd5b600083519050600060068202905060608167ffffffffffffffff8111801561116b57600080fd5b5060405190808252806020026020018201604052801561119a5781602001602082028036833780820191505090505b50905060008090505b83811015611340578681815181106111b757fe5b6020026020010151600001518260006006840201815181106111d557fe5b6020026020010181815250508681815181106111ed57fe5b60200260200101516020015182600160068402018151811061120b57fe5b60200260200101818152505085818151811061122357fe5b60200260200101516000015160006002811061123b57fe5b602002015182600260068402018151811061125257fe5b60200260200101818152505085818151811061126a57fe5b60200260200101516000015160016002811061128257fe5b602002015182600360068402018151811061129957fe5b6020026020010181815250508581815181106112b157fe5b6020026020010151602001516000600281106112c957fe5b60200201518260046006840201815181106112e057fe5b6020026020010181815250508581815181106112f857fe5b60200260200101516020015160016002811061131057fe5b602002015182600560068402018151811061132757fe5b60200260200101818152505080806001019150506111a3565b50611349611505565b6000602082602086026020860160086107d05a03fa9050806000811461136e57611370565bfe5b50806113e4576040517f08c379a00000000000000000000000000000000000000000000000000000000081526004018080602001828103825260158152602001807f70616972696e672d6f70636f64652d6661696c6564000000000000000000000081525060200191505060405180910390fd5b6000826000600181106113f357fe5b602002015114159550505050505092915050565b604051806060016040528061141a611481565b81526020016114276114df565b8152602001611434611481565b81525090565b6040518060a0016040528061144d611481565b815260200161145a6114df565b81526020016114676114df565b81526020016114746114df565b8152602001606081525090565b604051806040016040528060008152602001600081525090565b6040518060600160405280600390602082028036833780820191505090505090565b6040518060800160405280600490602082028036833780820191505090505090565b60405180604001604052806114f2611527565b81526020016114ff611527565b81525090565b6040518060200160405280600190602082028036833780820191505090505090565b604051806040016040528060029060208202803683378082019150509050509056fea26469706673582212202a60375341dd964d9cb92ec5a63615f6e8792520c172b48f388b35c81dd7daf564736f6c634300060b0033",
  "devdoc": {
    "kind": "dev",
    "methods": {
      "verifyProof(uint256[2],uint256[2][2],uint256[2],uint256[7])": {
        "returns": {
          "r": " bool true if proof is valid"
        }
      }
    },
    "version": 1
  },
  "userdoc": {
    "kind": "user",
    "methods": {},
    "version": 1
  },
  "storageLayout": {
    "storage": [],
    "types": null
  }
}